{
  "contractName": "Donation",
  "abi": [
    {
      "inputs": [],
      "stateMutability": "nonpayable",
      "type": "constructor"
    },
    {
      "inputs": [
        {
          "internalType": "uint256",
          "name": "",
          "type": "uint256"
        }
      ],
      "name": "donators",
      "outputs": [
        {
          "internalType": "address",
          "name": "",
          "type": "address"
        }
      ],
      "stateMutability": "view",
      "type": "function",
      "constant": true
    },
    {
      "inputs": [],
      "name": "owner",
      "outputs": [
        {
          "internalType": "address payable",
          "name": "",
          "type": "address"
        }
      ],
      "stateMutability": "view",
      "type": "function",
      "constant": true
    },
    {
      "inputs": [
        {
          "internalType": "uint256",
          "name": "",
          "type": "uint256"
        }
      ],
      "name": "values",
      "outputs": [
        {
          "internalType": "uint256",
          "name": "",
          "type": "uint256"
        }
      ],
      "stateMutability": "view",
      "type": "function",
      "constant": true
    },
    {
      "inputs": [],
      "name": "gatherDonation",
      "outputs": [],
      "stateMutability": "payable",
      "type": "function",
      "payable": true
    },
    {
      "inputs": [],
      "name": "transferToOwner",
      "outputs": [],
      "stateMutability": "nonpayable",
      "type": "function"
    },
    {
      "inputs": [],
      "name": "getDonators",
      "outputs": [
        {
          "internalType": "address[]",
          "name": "",
          "type": "address[]"
        }
      ],
      "stateMutability": "view",
      "type": "function",
      "constant": true
    },
    {
      "inputs": [],
      "name": "getValues",
      "outputs": [
        {
          "internalType": "uint256[]",
          "name": "",
          "type": "uint256[]"
        }
      ],
      "stateMutability": "view",
      "type": "function",
      "constant": true
    },
    {
      "inputs": [],
      "name": "getDonaterValues",
      "outputs": [
        {
          "internalType": "address[]",
          "name": "",
          "type": "address[]"
        },
        {
          "internalType": "uint256[]",
          "name": "",
          "type": "uint256[]"
        }
      ],
      "stateMutability": "view",
      "type": "function",
      "constant": true
    }
  ],
  "bytecode": "0x608060405234801561001057600080fd5b50336000806101000a81548173ffffffffffffffffffffffffffffffffffffffff021916908373ffffffffffffffffffffffffffffffffffffffff16021790555061094b806100606000396000f3fe60806040526004361061007b5760003560e01c80638da5cb5b1161004e5780638da5cb5b14610109578063ac62f56614610134578063bf1482fa14610171578063c6330e861461019c5761007b565b806306883ad31461008057806319eb4a901461008a5780632d90ae94146100b55780635e383d21146100cc575b600080fd5b6100886101c8565b005b34801561009657600080fd5b5061009f61027d565b6040516100ac919061065c565b60405180910390f35b3480156100c157600080fd5b506100ca6102d5565b005b3480156100d857600080fd5b506100f360048036038101906100ee91906106af565b610396565b60405161010091906106eb565b60405180910390f35b34801561011557600080fd5b5061011e6103ba565b60405161012b9190610747565b60405180910390f35b34801561014057600080fd5b5061015b600480360381019061015691906106af565b6103de565b6040516101689190610783565b60405180910390f35b34801561017d57600080fd5b5061018661041d565b604051610193919061085c565b60405180910390f35b3480156101a857600080fd5b506101b16104ab565b6040516101bf92919061087e565b60405180910390f35b66038d7ea4c680003410156101dc57600080fd5b6001339080600181540180825580915050600190039060005260206000200160009091909190916101000a81548173ffffffffffffffffffffffffffffffffffffffff021916908373ffffffffffffffffffffffffffffffffffffffff1602179055506002670de0b6b3a76400003461025591906108e4565b9080600181540180825580915050600190039060005260206000200160009091909190915055565b606060028054806020026020016040519081016040528092919081815260200182805480156102cb57602002820191906000526020600020905b8154815260200190600101908083116102b7575b5050505050905090565b60008054906101000a900473ffffffffffffffffffffffffffffffffffffffff1673ffffffffffffffffffffffffffffffffffffffff163373ffffffffffffffffffffffffffffffffffffffff161461032d57600080fd5b60008054906101000a900473ffffffffffffffffffffffffffffffffffffffff1673ffffffffffffffffffffffffffffffffffffffff166108fc479081150290604051600060405180830381858888f19350505050158015610393573d6000803e3d6000fd5b50565b600281815481106103a657600080fd5b906000526020600020016000915090505481565b60008054906101000a900473ffffffffffffffffffffffffffffffffffffffff1681565b600181815481106103ee57600080fd5b906000526020600020016000915054906101000a900473ffffffffffffffffffffffffffffffffffffffff1681565b606060018054806020026020016040519081016040528092919081815260200182805480156104a157602002820191906000526020600020905b8160009054906101000a900473ffffffffffffffffffffffffffffffffffffffff1673ffffffffffffffffffffffffffffffffffffffff1681526020019060010190808311610457575b5050505050905090565b606080600160028180548060200260200160405190810160405280929190818152602001828054801561053357602002820191906000526020600020905b8160009054906101000a900473ffffffffffffffffffffffffffffffffffffffff1673ffffffffffffffffffffffffffffffffffffffff16815260200190600101908083116104e9575b505050505091508080548060200260200160405190810160405280929190818152602001828054801561058557602002820191906000526020600020905b815481526020019060010190808311610571575b50505050509050915091509091565b600081519050919050565b600082825260208201905092915050565b6000819050602082019050919050565b6000819050919050565b6105d3816105c0565b82525050565b60006105e583836105ca565b60208301905092915050565b6000602082019050919050565b600061060982610594565b610613818561059f565b935061061e836105b0565b8060005b8381101561064f57815161063688826105d9565b9750610641836105f1565b925050600181019050610622565b5085935050505092915050565b6000602082019050818103600083015261067681846105fe565b905092915050565b600080fd5b61068c816105c0565b811461069757600080fd5b50565b6000813590506106a981610683565b92915050565b6000602082840312156106c5576106c461067e565b5b60006106d38482850161069a565b91505092915050565b6106e5816105c0565b82525050565b600060208201905061070060008301846106dc565b92915050565b600073ffffffffffffffffffffffffffffffffffffffff82169050919050565b600061073182610706565b9050919050565b61074181610726565b82525050565b600060208201905061075c6000830184610738565b92915050565b600061076d82610706565b9050919050565b61077d81610762565b82525050565b60006020820190506107986000830184610774565b92915050565b600081519050919050565b600082825260208201905092915050565b6000819050602082019050919050565b6107d381610762565b82525050565b60006107e583836107ca565b60208301905092915050565b6000602082019050919050565b60006108098261079e565b61081381856107a9565b935061081e836107ba565b8060005b8381101561084f57815161083688826107d9565b9750610841836107f1565b925050600181019050610822565b5085935050505092915050565b6000602082019050818103600083015261087681846107fe565b905092915050565b6000604082019050818103600083015261089881856107fe565b905081810360208301526108ac81846105fe565b90509392505050565b7f4e487b7100000000000000000000000000000000000000000000000000000000600052601260045260246000fd5b60006108ef826105c0565b91506108fa836105c0565b92508261090a576109096108b5565b5b82820490509291505056fea264697066735822122048fb672d8f0e6b2429e1fd5c0709d05f554dfa65e339f79c7ecccd394ec4c5e264736f6c634300080a0033",
  "immutableReferences": {},
  "source": "// SPDX-License-Identifier: MIT\npragma solidity >=0.5.0 <0.9.0;\n\ncontract Donation {\n  address payable public owner;\n  address[] public donators;\n  uint[] public values;\n  modifier onlyOwener(){\n    require(owner==payable(msg.sender),\"Not allowed\");\n    _;\n  }\n    constructor() public {\n    owner=payable(msg.sender);\n  }\n\n  function gatherDonation() public payable {\n    require(msg.value>=.001 ether);\n    donators.push(msg.sender);\n    values.push(msg.value/(1e18));//msg value return wei, that is ether=1e18 wei\n      }\n\n  function transferToOwner() external {\n    require(payable(msg.sender)==owner);\n    owner.transfer(address(this).balance);\n  }\n\n  function getDonators() public view returns (address[] memory){\n    return donators;\n  }\n\n  function getValues() public view returns (uint[] memory){\n    return values;\n  }\n\n  function getDonaterValues() public view returns (address[] memory,uint[] memory){\n    return (donators,values);\n  }\n}\n",
  "sourcePath": "C:\\Users\\zaki\\def_crypto\\SimpleFinance\\contracts\\Donation.sol",
  "compiler": {
    "name": "solc",
    "version": "0.8.10+commit.fc410830.Emscripten.clang"
  },
  "schemaVersion": "3.4.3",
  "updatedAt": "2021-11-21T19:19:54.175Z",
  "networkType": "ethereum",
  "devdoc": {
    "kind": "dev",
    "methods": {},
    "version": 1
  },
  "userdoc": {
    "kind": "user",
    "methods": {},
    "version": 1
  }
}